{
  "_format": "hh-sol-artifact-1",
  "contractName": "MyEscrow",
  "sourceName": "contracts/MyEscrow.sol",
  "abi": [
    {
      "inputs": [
        {
          "internalType": "address",
          "name": "_ERC20Address",
          "type": "address"
        }
      ],
      "stateMutability": "nonpayable",
      "type": "constructor"
    },
    {
      "anonymous": false,
      "inputs": [
        {
          "indexed": true,
          "internalType": "address",
          "name": "operator",
          "type": "address"
        },
        {
          "indexed": false,
          "internalType": "uint256",
          "name": "weiAmount",
          "type": "uint256"
        },
        {
          "indexed": false,
          "internalType": "uint8",
          "name": "accountType",
          "type": "uint8"
        }
      ],
      "name": "Deposit",
      "type": "event"
    },
    {
      "anonymous": false,
      "inputs": [
        {
          "indexed": true,
          "internalType": "address",
          "name": "payee",
          "type": "address"
        },
        {
          "indexed": false,
          "internalType": "uint256",
          "name": "weiAmount",
          "type": "uint256"
        }
      ],
      "name": "Deposited",
      "type": "event"
    },
    {
      "anonymous": false,
      "inputs": [
        {
          "indexed": true,
          "internalType": "address",
          "name": "recipient",
          "type": "address"
        },
        {
          "indexed": false,
          "internalType": "uint256",
          "name": "bonus",
          "type": "uint256"
        }
      ],
      "name": "GiveBonus",
      "type": "event"
    },
    {
      "anonymous": false,
      "inputs": [
        {
          "indexed": true,
          "internalType": "address",
          "name": "previousOwner",
          "type": "address"
        },
        {
          "indexed": true,
          "internalType": "address",
          "name": "newOwner",
          "type": "address"
        }
      ],
      "name": "OwnershipTransferred",
      "type": "event"
    },
    {
      "anonymous": false,
      "inputs": [
        {
          "indexed": true,
          "internalType": "address",
          "name": "operator",
          "type": "address"
        },
        {
          "indexed": false,
          "internalType": "uint256",
          "name": "weiAmount",
          "type": "uint256"
        },
        {
          "indexed": false,
          "internalType": "uint8",
          "name": "accountType",
          "type": "uint8"
        }
      ],
      "name": "Withdraw",
      "type": "event"
    },
    {
      "anonymous": false,
      "inputs": [
        {
          "indexed": true,
          "internalType": "address",
          "name": "payee",
          "type": "address"
        },
        {
          "indexed": false,
          "internalType": "uint256",
          "name": "weiAmount",
          "type": "uint256"
        }
      ],
      "name": "Withdrawn",
      "type": "event"
    },
    {
      "inputs": [],
      "name": "createTime_DD",
      "outputs": [
        {
          "internalType": "uint256",
          "name": "",
          "type": "uint256"
        }
      ],
      "stateMutability": "view",
      "type": "function"
    },
    {
      "inputs": [],
      "name": "createTime_FD_30",
      "outputs": [
        {
          "internalType": "uint256",
          "name": "",
          "type": "uint256"
        }
      ],
      "stateMutability": "view",
      "type": "function"
    },
    {
      "inputs": [],
      "name": "createTime_FD_60",
      "outputs": [
        {
          "internalType": "uint256",
          "name": "",
          "type": "uint256"
        }
      ],
      "stateMutability": "view",
      "type": "function"
    },
    {
      "inputs": [],
      "name": "createTime_FD_90",
      "outputs": [
        {
          "internalType": "uint256",
          "name": "",
          "type": "uint256"
        }
      ],
      "stateMutability": "view",
      "type": "function"
    },
    {
      "inputs": [
        {
          "internalType": "address",
          "name": "payee",
          "type": "address"
        }
      ],
      "name": "deposit",
      "outputs": [],
      "stateMutability": "payable",
      "type": "function"
    },
    {
      "inputs": [
        {
          "internalType": "uint256",
          "name": "amount",
          "type": "uint256"
        }
      ],
      "name": "deposit_DD",
      "outputs": [],
      "stateMutability": "payable",
      "type": "function"
    },
    {
      "inputs": [
        {
          "internalType": "uint256",
          "name": "amount",
          "type": "uint256"
        }
      ],
      "name": "deposit_FD_30",
      "outputs": [],
      "stateMutability": "payable",
      "type": "function"
    },
    {
      "inputs": [
        {
          "internalType": "uint256",
          "name": "amount",
          "type": "uint256"
        }
      ],
      "name": "deposit_FD_60",
      "outputs": [],
      "stateMutability": "payable",
      "type": "function"
    },
    {
      "inputs": [
        {
          "internalType": "uint256",
          "name": "amount",
          "type": "uint256"
        }
      ],
      "name": "deposit_FD_90",
      "outputs": [],
      "stateMutability": "payable",
      "type": "function"
    },
    {
      "inputs": [
        {
          "internalType": "address",
          "name": "payee",
          "type": "address"
        }
      ],
      "name": "depositsOf",
      "outputs": [
        {
          "internalType": "uint256",
          "name": "",
          "type": "uint256"
        }
      ],
      "stateMutability": "view",
      "type": "function"
    },
    {
      "inputs": [],
      "name": "depositsOf_DD",
      "outputs": [
        {
          "internalType": "uint256",
          "name": "",
          "type": "uint256"
        }
      ],
      "stateMutability": "view",
      "type": "function"
    },
    {
      "inputs": [],
      "name": "depositsOf_FD_30",
      "outputs": [
        {
          "internalType": "uint256",
          "name": "",
          "type": "uint256"
        }
      ],
      "stateMutability": "view",
      "type": "function"
    },
    {
      "inputs": [],
      "name": "depositsOf_FD_60",
      "outputs": [
        {
          "internalType": "uint256",
          "name": "",
          "type": "uint256"
        }
      ],
      "stateMutability": "view",
      "type": "function"
    },
    {
      "inputs": [],
      "name": "depositsOf_FD_90",
      "outputs": [
        {
          "internalType": "uint256",
          "name": "",
          "type": "uint256"
        }
      ],
      "stateMutability": "view",
      "type": "function"
    },
    {
      "inputs": [
        {
          "internalType": "address",
          "name": "_maxDepositor",
          "type": "address"
        }
      ],
      "name": "giveBonusTo",
      "outputs": [],
      "stateMutability": "nonpayable",
      "type": "function"
    },
    {
      "inputs": [],
      "name": "interestRate_DD",
      "outputs": [
        {
          "internalType": "uint256",
          "name": "",
          "type": "uint256"
        }
      ],
      "stateMutability": "view",
      "type": "function"
    },
    {
      "inputs": [],
      "name": "interestRate_FD_30",
      "outputs": [
        {
          "internalType": "uint256",
          "name": "",
          "type": "uint256"
        }
      ],
      "stateMutability": "view",
      "type": "function"
    },
    {
      "inputs": [],
      "name": "interestRate_FD_60",
      "outputs": [
        {
          "internalType": "uint256",
          "name": "",
          "type": "uint256"
        }
      ],
      "stateMutability": "view",
      "type": "function"
    },
    {
      "inputs": [],
      "name": "interestRate_FD_90",
      "outputs": [
        {
          "internalType": "uint256",
          "name": "",
          "type": "uint256"
        }
      ],
      "stateMutability": "view",
      "type": "function"
    },
    {
      "inputs": [],
      "name": "maxDepositor",
      "outputs": [
        {
          "internalType": "address",
          "name": "",
          "type": "address"
        }
      ],
      "stateMutability": "view",
      "type": "function"
    },
    {
      "inputs": [],
      "name": "owner",
      "outputs": [
        {
          "internalType": "address",
          "name": "",
          "type": "address"
        }
      ],
      "stateMutability": "view",
      "type": "function"
    },
    {
      "inputs": [],
      "name": "renounceOwnership",
      "outputs": [],
      "stateMutability": "nonpayable",
      "type": "function"
    },
    {
      "inputs": [
        {
          "internalType": "address",
          "name": "newOwner",
          "type": "address"
        }
      ],
      "name": "transferOwnership",
      "outputs": [],
      "stateMutability": "nonpayable",
      "type": "function"
    },
    {
      "inputs": [
        {
          "internalType": "address payable",
          "name": "payee",
          "type": "address"
        }
      ],
      "name": "withdraw",
      "outputs": [],
      "stateMutability": "nonpayable",
      "type": "function"
    },
    {
      "inputs": [
        {
          "internalType": "uint256",
          "name": "amount",
          "type": "uint256"
        }
      ],
      "name": "withdraw_DD",
      "outputs": [],
      "stateMutability": "nonpayable",
      "type": "function"
    },
    {
      "inputs": [],
      "name": "withdraw_FD_30",
      "outputs": [],
      "stateMutability": "nonpayable",
      "type": "function"
    },
    {
      "inputs": [],
      "name": "withdraw_FD_60",
      "outputs": [],
      "stateMutability": "nonpayable",
      "type": "function"
    },
    {
      "inputs": [],
      "name": "withdraw_FD_90",
      "outputs": [],
      "stateMutability": "nonpayable",
      "type": "function"
    }
  ],
  "bytecode": "0x60806040526103e86004556107d0600555610bb8600655610fa06007556301e133806008553480156200003157600080fd5b5060405162002be438038062002be48339818101604052810190620000579190620001e3565b620000776200006b6200010060201b60201c565b6200010860201b60201c565b33600360006101000a81548173ffffffffffffffffffffffffffffffffffffffff021916908373ffffffffffffffffffffffffffffffffffffffff16021790555080600260006101000a81548173ffffffffffffffffffffffffffffffffffffffff021916908373ffffffffffffffffffffffffffffffffffffffff160217905550506200025d565b600033905090565b60008060009054906101000a900473ffffffffffffffffffffffffffffffffffffffff169050816000806101000a81548173ffffffffffffffffffffffffffffffffffffffff021916908373ffffffffffffffffffffffffffffffffffffffff1602179055508173ffffffffffffffffffffffffffffffffffffffff168173ffffffffffffffffffffffffffffffffffffffff167f8be0079c531659141344cd1fd0a4f28419497f9722a3daafe3b4186f6b6457e060405160405180910390a35050565b600081519050620001dd8162000243565b92915050565b600060208284031215620001f657600080fd5b60006200020684828501620001cc565b91505092915050565b60006200021c8262000223565b9050919050565b600073ffffffffffffffffffffffffffffffffffffffff82169050919050565b6200024e816200020f565b81146200025a57600080fd5b50565b612977806200026d6000396000f3fe6080604052600436106101b75760003560e01c80638c8d760b116100ec578063df468fc01161008a578063eb8e405d11610064578063eb8e405d14610546578063eec68f3c1461056f578063f2fde38b1461059a578063f340fa01146105c3576101b7565b8063df468fc0146104d6578063e3a9db1a146104f2578063e5d269d11461052f576101b7565b806393d804df116100c657806393d804df14610439578063942b214014610464578063ac1aa86b1461048f578063c8792343146104ab576101b7565b80638c8d760b146103c75780638da5cb5b146103f257806392de858c1461041d576101b7565b80633e520b851161015957806363652435116101335780636365243514610343578063708f5c111461036e578063715018a6146103995780637312aaa7146103b0576101b7565b80633e520b85146102c457806340f0e851146102ef57806351cff8d91461031a576101b7565b806326f220051161019557806326f220051461023b57806330d0cf371461025257806339143d411461026e5780633d0e388c14610299576101b7565b80630fb9f2d5146101bc57806316972fa1146101e757806316cb097214610210575b600080fd5b3480156101c857600080fd5b506101d16105df565b6040516101de919061242a565b60405180910390f35b3480156101f357600080fd5b5061020e60048036038101906102099190611fc5565b61062e565b005b34801561021c57600080fd5b506102256107be565b604051610232919061242a565b60405180910390f35b34801561024757600080fd5b506102506107c4565b005b61026c60048036038101906102679190612040565b6108b6565b005b34801561027a57600080fd5b5061028361090c565b604051610290919061242a565b60405180910390f35b3480156102a557600080fd5b506102ae610912565b6040516102bb919061224f565b60405180910390f35b3480156102d057600080fd5b506102d9610c78565b6040516102e6919061242a565b60405180910390f35b3480156102fb57600080fd5b50610304610c7e565b604051610311919061242a565b60405180910390f35b34801561032657600080fd5b50610341600480360381019061033c9190611fee565b610ccd565b005b34801561034f57600080fd5b50610358610e4d565b604051610365919061242a565b60405180910390f35b34801561037a57600080fd5b50610383610e53565b604051610390919061242a565b60405180910390f35b3480156103a557600080fd5b506103ae610ea2565b005b3480156103bc57600080fd5b506103c5610f2a565b005b3480156103d357600080fd5b506103dc61101c565b6040516103e9919061242a565b60405180910390f35b3480156103fe57600080fd5b50610407611072565b604051610414919061224f565b60405180910390f35b61043760048036038101906104329190612040565b61109b565b005b34801561044557600080fd5b5061044e6110f1565b60405161045b919061242a565b60405180910390f35b34801561047057600080fd5b50610479611147565b604051610486919061242a565b60405180910390f35b6104a960048036038101906104a49190612040565b611196565b005b3480156104b757600080fd5b506104c06111ec565b6040516104cd919061242a565b60405180910390f35b6104f060048036038101906104eb9190612040565b611242565b005b3480156104fe57600080fd5b5061051960048036038101906105149190611fc5565b611298565b604051610526919061242a565b60405180910390f35b34801561053b57600080fd5b506105446112e1565b005b34801561055257600080fd5b5061056d60048036038101906105689190612040565b6113d3565b005b34801561057b57600080fd5b506105846114b3565b604051610591919061242a565b60405180910390f35b3480156105a657600080fd5b506105c160048036038101906105bc9190611fc5565b611509565b005b6105dd60048036038101906105d89190611fc5565b611601565b005b600080600b60003373ffffffffffffffffffffffffffffffffffffffff1673ffffffffffffffffffffffffffffffffffffffff1681526020019081526020016000209050806002015491505090565b600360009054906101000a900473ffffffffffffffffffffffffffffffffffffffff1673ffffffffffffffffffffffffffffffffffffffff163373ffffffffffffffffffffffffffffffffffffffff16146106be576040517f08c379a00000000000000000000000000000000000000000000000000000000081526004016106b5906123ca565b60405180910390fd5b6000600960008373ffffffffffffffffffffffffffffffffffffffff1673ffffffffffffffffffffffffffffffffffffffff168152602001908152602001600020600001549050600060028261071491906124e0565b90508082610722919061248a565b915081600960008573ffffffffffffffffffffffffffffffffffffffff1673ffffffffffffffffffffffffffffffffffffffff168152602001908152602001600020600001819055508273ffffffffffffffffffffffffffffffffffffffff167fdcfb7cb6042852b7b31e0327a950bf17e9cb6ffe80dc10e8576e62fea50f0163826040516107b1919061242a565b60405180910390a2505050565b60065481565b6000600b60003373ffffffffffffffffffffffffffffffffffffffff1673ffffffffffffffffffffffffffffffffffffffff1681526020019081526020016000209050600081600101541161084e576040517f08c379a00000000000000000000000000000000000000000000000000000000081526004016108459061240a565b60405180910390fd5b42624f1a008260020154610862919061248a565b11156108a3576040517f08c379a000000000000000000000000000000000000000000000000000000000815260040161089a9061236a565b60405180910390fd5b6108b3816000600654600361172a565b50565b6000600c60003373ffffffffffffffffffffffffffffffffffffffff1673ffffffffffffffffffffffffffffffffffffffff1681526020019081526020016000209050610908818360075460046118cf565b5050565b60055481565b600080600080600090505b600d80549050811015610c6f576000600c6000600d848154811061096a577f4e487b7100000000000000000000000000000000000000000000000000000000600052603260045260246000fd5b9060005260206000200160009054906101000a900473ffffffffffffffffffffffffffffffffffffffff1673ffffffffffffffffffffffffffffffffffffffff1673ffffffffffffffffffffffffffffffffffffffff16815260200190815260200160002060000154600b6000600d8581548110610a11577f4e487b7100000000000000000000000000000000000000000000000000000000600052603260045260246000fd5b9060005260206000200160009054906101000a900473ffffffffffffffffffffffffffffffffffffffff1673ffffffffffffffffffffffffffffffffffffffff1673ffffffffffffffffffffffffffffffffffffffff16815260200190815260200160002060000154600a6000600d8681548110610ab8577f4e487b7100000000000000000000000000000000000000000000000000000000600052603260045260246000fd5b9060005260206000200160009054906101000a900473ffffffffffffffffffffffffffffffffffffffff1673ffffffffffffffffffffffffffffffffffffffff1673ffffffffffffffffffffffffffffffffffffffff1681526020019081526020016000206000015460096000600d8781548110610b5f577f4e487b7100000000000000000000000000000000000000000000000000000000600052603260045260246000fd5b9060005260206000200160009054906101000a900473ffffffffffffffffffffffffffffffffffffffff1673ffffffffffffffffffffffffffffffffffffffff1673ffffffffffffffffffffffffffffffffffffffff16815260200190815260200160002060000154610bd2919061248a565b610bdc919061248a565b610be6919061248a565b905082811115610c5b57809250600d8281548110610c2d577f4e487b7100000000000000000000000000000000000000000000000000000000600052603260045260246000fd5b9060005260206000200160009054906101000a900473ffffffffffffffffffffffffffffffffffffffff1693505b508080610c6790612606565b91505061091d565b50819250505090565b60045481565b600080600a60003373ffffffffffffffffffffffffffffffffffffffff1673ffffffffffffffffffffffffffffffffffffffff1681526020019081526020016000209050806002015491505090565b610cd5611cbd565b73ffffffffffffffffffffffffffffffffffffffff16610cf3611072565b73ffffffffffffffffffffffffffffffffffffffff1614610d49576040517f08c379a0000000000000000000000000000000000000000000000000000000008152600401610d409061238a565b60405180910390fd5b6000600160008373ffffffffffffffffffffffffffffffffffffffff1673ffffffffffffffffffffffffffffffffffffffff1681526020019081526020016000205490506000600160008473ffffffffffffffffffffffffffffffffffffffff1673ffffffffffffffffffffffffffffffffffffffff16815260200190815260200160002081905550610dfb818373ffffffffffffffffffffffffffffffffffffffff16611cc590919063ffffffff16565b8173ffffffffffffffffffffffffffffffffffffffff167f7084f5476618d8e60b11ef0d7d3f06914655adb8793e28ff7f018d4c76d505d582604051610e41919061242a565b60405180910390a25050565b60075481565b600080600960003373ffffffffffffffffffffffffffffffffffffffff1673ffffffffffffffffffffffffffffffffffffffff1681526020019081526020016000209050806002015491505090565b610eaa611cbd565b73ffffffffffffffffffffffffffffffffffffffff16610ec8611072565b73ffffffffffffffffffffffffffffffffffffffff1614610f1e576040517f08c379a0000000000000000000000000000000000000000000000000000000008152600401610f159061238a565b60405180910390fd5b610f286000611db9565b565b6000600c60003373ffffffffffffffffffffffffffffffffffffffff1673ffffffffffffffffffffffffffffffffffffffff16815260200190815260200160002090506000816001015411610fb4576040517f08c379a0000000000000000000000000000000000000000000000000000000008152600401610fab9061240a565b60405180910390fd5b426276a7008260020154610fc8919061248a565b1115611009576040517f08c379a00000000000000000000000000000000000000000000000000000000081526004016110009061236a565b60405180910390fd5b611019816000600754600461172a565b50565b600080600b60003373ffffffffffffffffffffffffffffffffffffffff1673ffffffffffffffffffffffffffffffffffffffff168152602001908152602001600020905061106c81600654611e7d565b91505090565b60008060009054906101000a900473ffffffffffffffffffffffffffffffffffffffff16905090565b6000600960003373ffffffffffffffffffffffffffffffffffffffff1673ffffffffffffffffffffffffffffffffffffffff16815260200190815260200160002090506110ed818360045460016118cf565b5050565b600080600c60003373ffffffffffffffffffffffffffffffffffffffff1673ffffffffffffffffffffffffffffffffffffffff168152602001908152602001600020905061114181600754611e7d565b91505090565b600080600c60003373ffffffffffffffffffffffffffffffffffffffff1673ffffffffffffffffffffffffffffffffffffffff1681526020019081526020016000209050806002015491505090565b6000600b60003373ffffffffffffffffffffffffffffffffffffffff1673ffffffffffffffffffffffffffffffffffffffff16815260200190815260200160002090506111e8818360065460036118cf565b5050565b600080600960003373ffffffffffffffffffffffffffffffffffffffff1673ffffffffffffffffffffffffffffffffffffffff168152602001908152602001600020905061123c81600454611e7d565b91505090565b6000600a60003373ffffffffffffffffffffffffffffffffffffffff1673ffffffffffffffffffffffffffffffffffffffff1681526020019081526020016000209050611294818360055460026118cf565b5050565b6000600160008373ffffffffffffffffffffffffffffffffffffffff1673ffffffffffffffffffffffffffffffffffffffff168152602001908152602001600020549050919050565b6000600a60003373ffffffffffffffffffffffffffffffffffffffff1673ffffffffffffffffffffffffffffffffffffffff1681526020019081526020016000209050600081600101541161136b576040517f08c379a00000000000000000000000000000000000000000000000000000000081526004016113629061240a565b60405180910390fd5b4262278d00826002015461137f919061248a565b11156113c0576040517f08c379a00000000000000000000000000000000000000000000000000000000081526004016113b79061236a565b60405180910390fd5b6113d0816000600554600261172a565b50565b6000600960003373ffffffffffffffffffffffffffffffffffffffff1673ffffffffffffffffffffffffffffffffffffffff1681526020019081526020016000209050600081600101541161145d576040517f08c379a00000000000000000000000000000000000000000000000000000000081526004016114549061232a565b60405180910390fd5b600082116114a0576040517f08c379a0000000000000000000000000000000000000000000000000000000008152600401611497906123aa565b60405180910390fd5b6114af8183600454600161172a565b5050565b600080600a60003373ffffffffffffffffffffffffffffffffffffffff1673ffffffffffffffffffffffffffffffffffffffff168152602001908152602001600020905061150381600554611e7d565b91505090565b611511611cbd565b73ffffffffffffffffffffffffffffffffffffffff1661152f611072565b73ffffffffffffffffffffffffffffffffffffffff1614611585576040517f08c379a000000000000000000000000000000000000000000000000000000000815260040161157c9061238a565b60405180910390fd5b600073ffffffffffffffffffffffffffffffffffffffff168173ffffffffffffffffffffffffffffffffffffffff1614156115f5576040517f08c379a00000000000000000000000000000000000000000000000000000000081526004016115ec906122ea565b60405180910390fd5b6115fe81611db9565b50565b611609611cbd565b73ffffffffffffffffffffffffffffffffffffffff16611627611072565b73ffffffffffffffffffffffffffffffffffffffff161461167d576040517f08c379a00000000000000000000000000000000000000000000000000000000081526004016116749061238a565b60405180910390fd5b600034905080600160008473ffffffffffffffffffffffffffffffffffffffff1673ffffffffffffffffffffffffffffffffffffffff16815260200190815260200160002060008282546116d1919061248a565b925050819055508173ffffffffffffffffffffffffffffffffffffffff167f2da466a7b24304f47e87fa2e1e5a81b9831ce54fec19055ce277ca2f39ba42c48260405161171e919061242a565b60405180910390a25050565b600083111561179f576000836117408685611ea7565b61174a919061256b565b90506000811015611790576040517f08c379a0000000000000000000000000000000000000000000000000000000008152600401611787906123ea565b60405180910390fd5b808560000181905550506117c0565b6117a98483611ea7565b925060008460000181905550600084600201819055505b428460010181905550600260009054906101000a900473ffffffffffffffffffffffffffffffffffffffff1673ffffffffffffffffffffffffffffffffffffffff1663a9059cbb33856040518363ffffffff1660e01b81526004016118269291906122a1565b602060405180830381600087803b15801561184057600080fd5b505af1158015611854573d6000803e3d6000fd5b505050506040513d601f19601f820116820180604052508101906118789190612017565b503373ffffffffffffffffffffffffffffffffffffffff167f45d9b36bb1871baeb32899cbd875ecf2aa49cfb142c4ca5fb99837aa770dd33784836040516118c1929190612445565b60405180910390a250505050565b6000600260009054906101000a900473ffffffffffffffffffffffffffffffffffffffff1673ffffffffffffffffffffffffffffffffffffffff1663095ea7b333866040518363ffffffff1660e01b815260040161192e9291906122a1565b602060405180830381600087803b15801561194857600080fd5b505af115801561195c573d6000803e3d6000fd5b505050506040513d601f19601f820116820180604052508101906119809190612017565b9050806119c2576040517f08c379a00000000000000000000000000000000000000000000000000000000081526004016119b9906122ca565b60405180910390fd5b6000600960003373ffffffffffffffffffffffffffffffffffffffff1673ffffffffffffffffffffffffffffffffffffffff16815260200190815260200160002060010154148015611a5657506000600a60003373ffffffffffffffffffffffffffffffffffffffff1673ffffffffffffffffffffffffffffffffffffffff16815260200190815260200160002060010154145b8015611aa457506000600b60003373ffffffffffffffffffffffffffffffffffffffff1673ffffffffffffffffffffffffffffffffffffffff16815260200190815260200160002060010154145b8015611af257506000600c60003373ffffffffffffffffffffffffffffffffffffffff1673ffffffffffffffffffffffffffffffffffffffff16815260200190815260200160002060010154145b15611b5b57600d339080600181540180825580915050600190039060005260206000200160009091909190916101000a81548173ffffffffffffffffffffffffffffffffffffffff021916908373ffffffffffffffffffffffffffffffffffffffff1602179055505b600085600201541415611b72574285600201819055505b600085600101541415611b8d57838560000181905550611bab565b83611b988685611ea7565b611ba2919061248a565b85600001819055505b428560010181905550600260009054906101000a900473ffffffffffffffffffffffffffffffffffffffff1673ffffffffffffffffffffffffffffffffffffffff166323b872dd3330876040518463ffffffff1660e01b8152600401611c139392919061226a565b602060405180830381600087803b158015611c2d57600080fd5b505af1158015611c41573d6000803e3d6000fd5b505050506040513d601f19601f82011682018060405250810190611c659190612017565b503373ffffffffffffffffffffffffffffffffffffffff167ff763e680fce25a97ffd55d8b705370c98b47b2285f7b3b2900c43606fd4180458584604051611cae929190612445565b60405180910390a25050505050565b600033905090565b80471015611d08576040517f08c379a0000000000000000000000000000000000000000000000000000000008152600401611cff9061234a565b60405180910390fd5b60008273ffffffffffffffffffffffffffffffffffffffff1682604051611d2e9061223a565b60006040518083038185875af1925050503d8060008114611d6b576040519150601f19603f3d011682016040523d82523d6000602084013e611d70565b606091505b5050905080611db4576040517f08c379a0000000000000000000000000000000000000000000000000000000008152600401611dab9061230a565b60405180910390fd5b505050565b60008060009054906101000a900473ffffffffffffffffffffffffffffffffffffffff169050816000806101000a81548173ffffffffffffffffffffffffffffffffffffffff021916908373ffffffffffffffffffffffffffffffffffffffff1602179055508173ffffffffffffffffffffffffffffffffffffffff168173ffffffffffffffffffffffffffffffffffffffff167f8be0079c531659141344cd1fd0a4f28419497f9722a3daafe3b4186f6b6457e060405160405180910390a35050565b60008083600101541415611e945760009050611ea1565b611e9e8383611ea7565b90505b92915050565b600080836000015490506000846001015442611ec3919061256b565b905060055484148015611ed8575062278d0081115b15611ee45762278d0090505b60065484148015611ef75750624f1a0081115b15611f0357624f1a0090505b60075484148015611f1657506276a70081115b15611f22576276a70090505b6000600854826103e88786611f379190612511565b611f4191906124e0565b611f4b9190612511565b611f5591906124e0565b90508083611f63919061248a565b925082935050505092915050565b600081359050611f80816128e5565b92915050565b600081359050611f95816128fc565b92915050565b600081519050611faa81612913565b92915050565b600081359050611fbf8161292a565b92915050565b600060208284031215611fd757600080fd5b6000611fe584828501611f71565b91505092915050565b60006020828403121561200057600080fd5b600061200e84828501611f86565b91505092915050565b60006020828403121561202957600080fd5b600061203784828501611f9b565b91505092915050565b60006020828403121561205257600080fd5b600061206084828501611fb0565b91505092915050565b6120728161259f565b82525050565b6000612085600d83612479565b9150612090826126ad565b602082019050919050565b60006120a8602683612479565b91506120b3826126d6565b604082019050919050565b60006120cb603a83612479565b91506120d682612725565b604082019050919050565b60006120ee601583612479565b91506120f982612774565b602082019050919050565b6000612111601d83612479565b915061211c8261279d565b602082019050919050565b6000612134600d83612479565b915061213f826127c6565b602082019050919050565b6000612157602083612479565b9150612162826127ef565b602082019050919050565b600061217a602d83612479565b915061218582612818565b604082019050919050565b600061219d60008361246e565b91506121a882612867565b600082019050919050565b60006121c0601a83612479565b91506121cb8261286a565b602082019050919050565b60006121e3601d83612479565b91506121ee82612893565b602082019050919050565b6000612206601483612479565b9150612211826128bc565b602082019050919050565b612225816125ef565b82525050565b612234816125f9565b82525050565b600061224582612190565b9150819050919050565b60006020820190506122646000830184612069565b92915050565b600060608201905061227f6000830186612069565b61228c6020830185612069565b612299604083018461221c565b949350505050565b60006040820190506122b66000830185612069565b6122c3602083018461221c565b9392505050565b600060208201905081810360008301526122e381612078565b9050919050565b600060208201905081810360008301526123038161209b565b9050919050565b60006020820190508181036000830152612323816120be565b9050919050565b60006020820190508181036000830152612343816120e1565b9050919050565b6000602082019050818103600083015261236381612104565b9050919050565b6000602082019050818103600083015261238381612127565b9050919050565b600060208201905081810360008301526123a38161214a565b9050919050565b600060208201905081810360008301526123c38161216d565b9050919050565b600060208201905081810360008301526123e3816121b3565b9050919050565b60006020820190508181036000830152612403816121d6565b9050919050565b60006020820190508181036000830152612423816121f9565b9050919050565b600060208201905061243f600083018461221c565b92915050565b600060408201905061245a600083018561221c565b612467602083018461222b565b9392505050565b600081905092915050565b600082825260208201905092915050565b6000612495826125ef565b91506124a0836125ef565b9250827fffffffffffffffffffffffffffffffffffffffffffffffffffffffffffffffff038211156124d5576124d461264f565b5b828201905092915050565b60006124eb826125ef565b91506124f6836125ef565b9250826125065761250561267e565b5b828204905092915050565b600061251c826125ef565b9150612527836125ef565b9250817fffffffffffffffffffffffffffffffffffffffffffffffffffffffffffffffff04831182151516156125605761255f61264f565b5b828202905092915050565b6000612576826125ef565b9150612581836125ef565b9250828210156125945761259361264f565b5b828203905092915050565b60006125aa826125cf565b9050919050565b60006125bc826125cf565b9050919050565b60008115159050919050565b600073ffffffffffffffffffffffffffffffffffffffff82169050919050565b6000819050919050565b600060ff82169050919050565b6000612611826125ef565b91507fffffffffffffffffffffffffffffffffffffffffffffffffffffffffffffffff8214156126445761264361264f565b5b600182019050919050565b7f4e487b7100000000000000000000000000000000000000000000000000000000600052601160045260246000fd5b7f4e487b7100000000000000000000000000000000000000000000000000000000600052601260045260246000fd5b7f617072726f76616c206661696c00000000000000000000000000000000000000600082015250565b7f4f776e61626c653a206e6577206f776e657220697320746865207a65726f206160008201527f6464726573730000000000000000000000000000000000000000000000000000602082015250565b7f416464726573733a20756e61626c6520746f2073656e642076616c75652c207260008201527f6563697069656e74206d61792068617665207265766572746564000000000000602082015250565b7f486176656e2774206465706f7369742079657420210000000000000000000000600082015250565b7f416464726573733a20696e73756666696369656e742062616c616e6365000000600082015250565b7f49742773206c6f636b6564202100000000000000000000000000000000000000600082015250565b7f4f776e61626c653a2063616c6c6572206973206e6f7420746865206f776e6572600082015250565b7f596f75206172652077617374696e672067617320666f7220776974686472617760008201527f696e67206e6f7468696e67202100000000000000000000000000000000000000602082015250565b50565b7f596f7520617265206e6f7420616c6c6f7720746f2063616c6c21000000000000600082015250565b7f4e6f20656e6f756768206d6f6e657920746f2077697468647261772021000000600082015250565b7f486176656e2774206465706f7369742079657421000000000000000000000000600082015250565b6128ee8161259f565b81146128f957600080fd5b50565b612905816125b1565b811461291057600080fd5b50565b61291c816125c3565b811461292757600080fd5b50565b612933816125ef565b811461293e57600080fd5b5056fea2646970667358221220f0166a0447416bc9dfb5a7ac7e2a2da8c62505d81a001df26924d30884c236fe64736f6c63430008040033",
  "linkReferences": {},
  "deployedLinkReferences": {}
}