{
  "_format": "hh-sol-artifact-1",
  "contractName": "MyToken",
  "sourceName": "contracts/MyToken.sol",
  "abi": [
    {
      "inputs": [],
      "stateMutability": "nonpayable",
      "type": "constructor"
    },
    {
      "anonymous": false,
      "inputs": [
        {
          "indexed": true,
          "internalType": "address",
          "name": "owner",
          "type": "address"
        },
        {
          "indexed": true,
          "internalType": "address",
          "name": "spender",
          "type": "address"
        },
        {
          "indexed": false,
          "internalType": "uint256",
          "name": "value",
          "type": "uint256"
        }
      ],
      "name": "Approval",
      "type": "event"
    },
    {
      "anonymous": false,
      "inputs": [
        {
          "indexed": true,
          "internalType": "address",
          "name": "from",
          "type": "address"
        },
        {
          "indexed": true,
          "internalType": "address",
          "name": "to",
          "type": "address"
        },
        {
          "indexed": false,
          "internalType": "uint256",
          "name": "value",
          "type": "uint256"
        }
      ],
      "name": "Transfer",
      "type": "event"
    },
    {
      "inputs": [
        {
          "internalType": "address",
          "name": "owner",
          "type": "address"
        },
        {
          "internalType": "address",
          "name": "spender",
          "type": "address"
        }
      ],
      "name": "allowance",
      "outputs": [
        {
          "internalType": "uint256",
          "name": "",
          "type": "uint256"
        }
      ],
      "stateMutability": "view",
      "type": "function"
    },
    {
      "inputs": [
        {
          "internalType": "address",
          "name": "owner",
          "type": "address"
        },
        {
          "internalType": "uint256",
          "name": "amount",
          "type": "uint256"
        }
      ],
      "name": "approve",
      "outputs": [
        {
          "internalType": "bool",
          "name": "",
          "type": "bool"
        }
      ],
      "stateMutability": "nonpayable",
      "type": "function"
    },
    {
      "inputs": [
        {
          "internalType": "address",
          "name": "account",
          "type": "address"
        }
      ],
      "name": "balanceOf",
      "outputs": [
        {
          "internalType": "uint256",
          "name": "",
          "type": "uint256"
        }
      ],
      "stateMutability": "view",
      "type": "function"
    },
    {
      "inputs": [],
      "name": "decimals",
      "outputs": [
        {
          "internalType": "uint8",
          "name": "",
          "type": "uint8"
        }
      ],
      "stateMutability": "view",
      "type": "function"
    },
    {
      "inputs": [
        {
          "internalType": "address",
          "name": "spender",
          "type": "address"
        },
        {
          "internalType": "uint256",
          "name": "subtractedValue",
          "type": "uint256"
        }
      ],
      "name": "decreaseAllowance",
      "outputs": [
        {
          "internalType": "bool",
          "name": "",
          "type": "bool"
        }
      ],
      "stateMutability": "nonpayable",
      "type": "function"
    },
    {
      "inputs": [],
      "name": "freeToMint",
      "outputs": [],
      "stateMutability": "nonpayable",
      "type": "function"
    },
    {
      "inputs": [
        {
          "internalType": "address",
          "name": "spender",
          "type": "address"
        },
        {
          "internalType": "uint256",
          "name": "addedValue",
          "type": "uint256"
        }
      ],
      "name": "increaseAllowance",
      "outputs": [
        {
          "internalType": "bool",
          "name": "",
          "type": "bool"
        }
      ],
      "stateMutability": "nonpayable",
      "type": "function"
    },
    {
      "inputs": [],
      "name": "name",
      "outputs": [
        {
          "internalType": "string",
          "name": "",
          "type": "string"
        }
      ],
      "stateMutability": "view",
      "type": "function"
    },
    {
      "inputs": [],
      "name": "symbol",
      "outputs": [
        {
          "internalType": "string",
          "name": "",
          "type": "string"
        }
      ],
      "stateMutability": "view",
      "type": "function"
    },
    {
      "inputs": [],
      "name": "totalSupply",
      "outputs": [
        {
          "internalType": "uint256",
          "name": "",
          "type": "uint256"
        }
      ],
      "stateMutability": "view",
      "type": "function"
    },
    {
      "inputs": [
        {
          "internalType": "address",
          "name": "to",
          "type": "address"
        },
        {
          "internalType": "uint256",
          "name": "amount",
          "type": "uint256"
        }
      ],
      "name": "transfer",
      "outputs": [
        {
          "internalType": "bool",
          "name": "",
          "type": "bool"
        }
      ],
      "stateMutability": "nonpayable",
      "type": "function"
    },
    {
      "inputs": [
        {
          "internalType": "address",
          "name": "from",
          "type": "address"
        },
        {
          "internalType": "address",
          "name": "to",
          "type": "address"
        },
        {
          "internalType": "uint256",
          "name": "amount",
          "type": "uint256"
        }
      ],
      "name": "transferFrom",
      "outputs": [
        {
          "internalType": "bool",
          "name": "",
          "type": "bool"
        }
      ],
      "stateMutability": "nonpayable",
      "type": "function"
    }
  ],
  "bytecode": "0x60806040523480156200001157600080fd5b506040518060400160405280600381526020017f52415900000000000000000000000000000000000000000000000000000000008152506040518060400160405280600381526020017f524159000000000000000000000000000000000000000000000000000000000081525081600390805190602001906200009692919062000256565b508060049080519060200190620000af92919062000256565b505050620000cd33683635c9adc5dea00000620000d360201b60201c565b620004b2565b600073ffffffffffffffffffffffffffffffffffffffff168273ffffffffffffffffffffffffffffffffffffffff16141562000146576040517f08c379a00000000000000000000000000000000000000000000000000000000081526004016200013d906200033e565b60405180910390fd5b6200015a600083836200024c60201b60201c565b80600260008282546200016e91906200038e565b92505081905550806000808473ffffffffffffffffffffffffffffffffffffffff1673ffffffffffffffffffffffffffffffffffffffff1681526020019081526020016000206000828254620001c591906200038e565b925050819055508173ffffffffffffffffffffffffffffffffffffffff16600073ffffffffffffffffffffffffffffffffffffffff167fddf252ad1be2c89b69c2b068fc378daa952ba7f163c4a11628f55a4df523b3ef836040516200022c919062000360565b60405180910390a362000248600083836200025160201b60201c565b5050565b505050565b505050565b8280546200026490620003f5565b90600052602060002090601f016020900481019282620002885760008555620002d4565b82601f10620002a357805160ff1916838001178555620002d4565b82800160010185558215620002d4579182015b82811115620002d3578251825591602001919060010190620002b6565b5b509050620002e39190620002e7565b5090565b5b8082111562000302576000816000905550600101620002e8565b5090565b600062000315601f836200037d565b9150620003228262000489565b602082019050919050565b6200033881620003eb565b82525050565b60006020820190508181036000830152620003598162000306565b9050919050565b60006020820190506200037760008301846200032d565b92915050565b600082825260208201905092915050565b60006200039b82620003eb565b9150620003a883620003eb565b9250827fffffffffffffffffffffffffffffffffffffffffffffffffffffffffffffffff03821115620003e057620003df6200042b565b5b828201905092915050565b6000819050919050565b600060028204905060018216806200040e57607f821691505b602082108114156200042557620004246200045a565b5b50919050565b7f4e487b7100000000000000000000000000000000000000000000000000000000600052601160045260246000fd5b7f4e487b7100000000000000000000000000000000000000000000000000000000600052602260045260246000fd5b7f45524332303a206d696e7420746f20746865207a65726f206164647265737300600082015250565b61144880620004c26000396000f3fe608060405234801561001057600080fd5b50600436106100b45760003560e01c80633950935111610071578063395093511461017d57806370a08231146101ad57806395d89b41146101dd578063a457c2d7146101fb578063a9059cbb1461022b578063dd62ed3e1461025b576100b4565b806306fdde03146100b9578063095ea7b3146100d7578063155fe1c11461010757806318160ddd1461011157806323b872dd1461012f578063313ce5671461015f575b600080fd5b6100c161028b565b6040516100ce9190610ec5565b60405180910390f35b6100f160048036038101906100ec9190610cf0565b61031d565b6040516100fe9190610eaa565b60405180910390f35b61010f610340565b005b610119610354565b6040516101269190610fe7565b60405180910390f35b61014960048036038101906101449190610ca1565b61035e565b6040516101569190610eaa565b60405180910390f35b61016761038d565b6040516101749190611002565b60405180910390f35b61019760048036038101906101929190610cf0565b610396565b6040516101a49190610eaa565b60405180910390f35b6101c760048036038101906101c29190610c3c565b6103cd565b6040516101d49190610fe7565b60405180910390f35b6101e5610415565b6040516101f29190610ec5565b60405180910390f35b61021560048036038101906102109190610cf0565b6104a7565b6040516102229190610eaa565b60405180910390f35b61024560048036038101906102409190610cf0565b61051e565b6040516102529190610eaa565b60405180910390f35b61027560048036038101906102709190610c65565b610541565b6040516102829190610fe7565b60405180910390f35b60606003805461029a90611117565b80601f01602080910402602001604051908101604052809291908181526020018280546102c690611117565b80156103135780601f106102e857610100808354040283529160200191610313565b820191906000526020600020905b8154815290600101906020018083116102f657829003601f168201915b5050505050905090565b6000806103286105c8565b90506103358482856105d0565b600191505092915050565b61035233678ac7230489e8000061079b565b565b6000600254905090565b6000806103696105c8565b90506103768582856108fb565b610381858585610987565b60019150509392505050565b60006012905090565b6000806103a16105c8565b90506103c28185856103b38589610541565b6103bd9190611039565b6105d0565b600191505092915050565b60008060008373ffffffffffffffffffffffffffffffffffffffff1673ffffffffffffffffffffffffffffffffffffffff168152602001908152602001600020549050919050565b60606004805461042490611117565b80601f016020809104026020016040519081016040528092919081815260200182805461045090611117565b801561049d5780601f106104725761010080835404028352916020019161049d565b820191906000526020600020905b81548152906001019060200180831161048057829003601f168201915b5050505050905090565b6000806104b26105c8565b905060006104c08286610541565b905083811015610505576040517f08c379a00000000000000000000000000000000000000000000000000000000081526004016104fc90610fa7565b60405180910390fd5b61051282868684036105d0565b60019250505092915050565b6000806105296105c8565b9050610536818585610987565b600191505092915050565b6000600160008473ffffffffffffffffffffffffffffffffffffffff1673ffffffffffffffffffffffffffffffffffffffff16815260200190815260200160002060008373ffffffffffffffffffffffffffffffffffffffff1673ffffffffffffffffffffffffffffffffffffffff16815260200190815260200160002054905092915050565b600033905090565b600073ffffffffffffffffffffffffffffffffffffffff168373ffffffffffffffffffffffffffffffffffffffff161415610640576040517f08c379a000000000000000000000000000000000000000000000000000000000815260040161063790610f87565b60405180910390fd5b600073ffffffffffffffffffffffffffffffffffffffff168273ffffffffffffffffffffffffffffffffffffffff1614156106b0576040517f08c379a00000000000000000000000000000000000000000000000000000000081526004016106a790610f07565b60405180910390fd5b80600160008573ffffffffffffffffffffffffffffffffffffffff1673ffffffffffffffffffffffffffffffffffffffff16815260200190815260200160002060008473ffffffffffffffffffffffffffffffffffffffff1673ffffffffffffffffffffffffffffffffffffffff168152602001908152602001600020819055508173ffffffffffffffffffffffffffffffffffffffff168373ffffffffffffffffffffffffffffffffffffffff167f8c5be1e5ebec7d5bd14f71427d1e84f3dd0314c0f7b2291e5b200ac8c7c3b9258360405161078e9190610fe7565b60405180910390a3505050565b600073ffffffffffffffffffffffffffffffffffffffff168273ffffffffffffffffffffffffffffffffffffffff16141561080b576040517f08c379a000000000000000000000000000000000000000000000000000000000815260040161080290610fc7565b60405180910390fd5b61081760008383610c08565b80600260008282546108299190611039565b92505081905550806000808473ffffffffffffffffffffffffffffffffffffffff1673ffffffffffffffffffffffffffffffffffffffff168152602001908152602001600020600082825461087e9190611039565b925050819055508173ffffffffffffffffffffffffffffffffffffffff16600073ffffffffffffffffffffffffffffffffffffffff167fddf252ad1be2c89b69c2b068fc378daa952ba7f163c4a11628f55a4df523b3ef836040516108e39190610fe7565b60405180910390a36108f760008383610c0d565b5050565b60006109078484610541565b90507fffffffffffffffffffffffffffffffffffffffffffffffffffffffffffffffff81146109815781811015610973576040517f08c379a000000000000000000000000000000000000000000000000000000000815260040161096a90610f27565b60405180910390fd5b61098084848484036105d0565b5b50505050565b600073ffffffffffffffffffffffffffffffffffffffff168373ffffffffffffffffffffffffffffffffffffffff1614156109f7576040517f08c379a00000000000000000000000000000000000000000000000000000000081526004016109ee90610f67565b60405180910390fd5b600073ffffffffffffffffffffffffffffffffffffffff168273ffffffffffffffffffffffffffffffffffffffff161415610a67576040517f08c379a0000000000000000000000000000000000000000000000000000000008152600401610a5e90610ee7565b60405180910390fd5b610a72838383610c08565b60008060008573ffffffffffffffffffffffffffffffffffffffff1673ffffffffffffffffffffffffffffffffffffffff16815260200190815260200160002054905081811015610af8576040517f08c379a0000000000000000000000000000000000000000000000000000000008152600401610aef90610f47565b60405180910390fd5b8181036000808673ffffffffffffffffffffffffffffffffffffffff1673ffffffffffffffffffffffffffffffffffffffff16815260200190815260200160002081905550816000808573ffffffffffffffffffffffffffffffffffffffff1673ffffffffffffffffffffffffffffffffffffffff1681526020019081526020016000206000828254610b8b9190611039565b925050819055508273ffffffffffffffffffffffffffffffffffffffff168473ffffffffffffffffffffffffffffffffffffffff167fddf252ad1be2c89b69c2b068fc378daa952ba7f163c4a11628f55a4df523b3ef84604051610bef9190610fe7565b60405180910390a3610c02848484610c0d565b50505050565b505050565b505050565b600081359050610c21816113e4565b92915050565b600081359050610c36816113fb565b92915050565b600060208284031215610c4e57600080fd5b6000610c5c84828501610c12565b91505092915050565b60008060408385031215610c7857600080fd5b6000610c8685828601610c12565b9250506020610c9785828601610c12565b9150509250929050565b600080600060608486031215610cb657600080fd5b6000610cc486828701610c12565b9350506020610cd586828701610c12565b9250506040610ce686828701610c27565b9150509250925092565b60008060408385031215610d0357600080fd5b6000610d1185828601610c12565b9250506020610d2285828601610c27565b9150509250929050565b610d35816110a1565b82525050565b6000610d468261101d565b610d508185611028565b9350610d608185602086016110e4565b610d69816111a7565b840191505092915050565b6000610d81602383611028565b9150610d8c826111b8565b604082019050919050565b6000610da4602283611028565b9150610daf82611207565b604082019050919050565b6000610dc7601d83611028565b9150610dd282611256565b602082019050919050565b6000610dea602683611028565b9150610df58261127f565b604082019050919050565b6000610e0d602583611028565b9150610e18826112ce565b604082019050919050565b6000610e30602483611028565b9150610e3b8261131d565b604082019050919050565b6000610e53602583611028565b9150610e5e8261136c565b604082019050919050565b6000610e76601f83611028565b9150610e81826113bb565b602082019050919050565b610e95816110cd565b82525050565b610ea4816110d7565b82525050565b6000602082019050610ebf6000830184610d2c565b92915050565b60006020820190508181036000830152610edf8184610d3b565b905092915050565b60006020820190508181036000830152610f0081610d74565b9050919050565b60006020820190508181036000830152610f2081610d97565b9050919050565b60006020820190508181036000830152610f4081610dba565b9050919050565b60006020820190508181036000830152610f6081610ddd565b9050919050565b60006020820190508181036000830152610f8081610e00565b9050919050565b60006020820190508181036000830152610fa081610e23565b9050919050565b60006020820190508181036000830152610fc081610e46565b9050919050565b60006020820190508181036000830152610fe081610e69565b9050919050565b6000602082019050610ffc6000830184610e8c565b92915050565b60006020820190506110176000830184610e9b565b92915050565b600081519050919050565b600082825260208201905092915050565b6000611044826110cd565b915061104f836110cd565b9250827fffffffffffffffffffffffffffffffffffffffffffffffffffffffffffffffff0382111561108457611083611149565b5b828201905092915050565b600061109a826110ad565b9050919050565b60008115159050919050565b600073ffffffffffffffffffffffffffffffffffffffff82169050919050565b6000819050919050565b600060ff82169050919050565b60005b838110156111025780820151818401526020810190506110e7565b83811115611111576000848401525b50505050565b6000600282049050600182168061112f57607f821691505b6020821081141561114357611142611178565b5b50919050565b7f4e487b7100000000000000000000000000000000000000000000000000000000600052601160045260246000fd5b7f4e487b7100000000000000000000000000000000000000000000000000000000600052602260045260246000fd5b6000601f19601f8301169050919050565b7f45524332303a207472616e7366657220746f20746865207a65726f206164647260008201527f6573730000000000000000000000000000000000000000000000000000000000602082015250565b7f45524332303a20617070726f766520746f20746865207a65726f20616464726560008201527f7373000000000000000000000000000000000000000000000000000000000000602082015250565b7f45524332303a20696e73756666696369656e7420616c6c6f77616e6365000000600082015250565b7f45524332303a207472616e7366657220616d6f756e742065786365656473206260008201527f616c616e63650000000000000000000000000000000000000000000000000000602082015250565b7f45524332303a207472616e736665722066726f6d20746865207a65726f20616460008201527f6472657373000000000000000000000000000000000000000000000000000000602082015250565b7f45524332303a20617070726f76652066726f6d20746865207a65726f2061646460008201527f7265737300000000000000000000000000000000000000000000000000000000602082015250565b7f45524332303a2064656372656173656420616c6c6f77616e63652062656c6f7760008201527f207a65726f000000000000000000000000000000000000000000000000000000602082015250565b7f45524332303a206d696e7420746f20746865207a65726f206164647265737300600082015250565b6113ed8161108f565b81146113f857600080fd5b50565b611404816110cd565b811461140f57600080fd5b5056fea2646970667358221220b90c6c83c69dde2adfff7f341bbc676ddb2ee5f720be810ab9575519d99e97fb64736f6c63430008040033",
  "linkReferences": {},
  "deployedLinkReferences": {}
}